:0C0000000C944C000C9400000C940000C8
:10000C000C9400000C9400000C9400000C94000064
:10001C000C9400000C9400000C9400000C94000054
:10002C000C9400000C9400000C9400000C94000044
:10003C000C9400000C9400000C9400000C94000034
:10004C000C9400000C9400000C9400000C94000024
:10005C000C9400000C9400000C9400001027E80392
:10006C0064000A00010000100001100001000303ED
:10007C000302020C000800010006253032693A2503
:10008C003032693A2530326920200000F894EE278E
:10009C00EFBBF1E0F5BFE5BF8DE0A2E0BB27ED9330
:1000AC008A95E9F780E098E0A0E0B1E0ED93019744
:1000BC00E9F7E0E0EEBBEFEFEDBFE8E0EEBFC0E04C
:1000CC00D3E00C9408012C978CE060E070E0EAE738
:1000DC00F0E045D30A93539A529A549A559A569AE9
:1000EC00579AA2E3B0E0C2D400E00C3070F4A2E066
:1000FC00B0E0BCD4E02FF0E0DE011196AE0FBF1FD4
:10010C00AC910FD00BD00F5FF0CFECE0E09300037D
:10011C00A09100031ED008812D9608955B9A5B98E0
:10012C0008950A930A2F03FF02C05F9A01C05F98DB
:10013C0002FF02C05E9A01C05E9801FF02C05D9A88
:10014C0001C05D9800FF02C05C9A01C05C980991E7
:10015C0008951A930A931A2F5A9804C01A930A9363
:10016C001A2F5A9AA2E0B0E081D4E12FE07F0E2F33
:10017C0002950F70A02FD5DFD1DFE12FEF700E2F7E
:10018C00A02FCFDFA2E0B0E071D4C8DF09911991A4
:10019C000895DAD21A2F2B2F00E0E02F0F5FF0E03A
:1001AC00E10FF21FA081DADFA12FB22FEE27A00FF3
:1001BC00BE1FEC91E03089F7CED222C01A930A937D
:1001CC000A2F1A81E02FF0E0309719F4A12FA058D4
:1001DC0014C0E130A0E0FA0719F4A12FA0540DC00F
:1001EC00E230A0E0FA0719F4A12FAC5606C0E330B8
:1001FC00A0E0FA0719F4A12FAC52ABDF19810881EA
:10020C002396089560DFEFE1E8B9E0E0E093800029
:10021C00EAE0E0938100EAE7E0938900E1E1E09312
:10022C008800E5E0F3E0FA93EA93E6E8F0E0FA936D
:10023C00EA93E09102034ED2E09103034BD2E0919A
:10024C00040348D28CE0F6D16096E3E0EA93A0E098
:10025C00B5DFA5E0B3E09DDFB19BFECFB19AE09195
:10026C000103EF5FE0930103A0910103A43049F572
:10027C00E0E0E0930103E0910403EF5FE0930403FB
:10028C00A0910403A23009F47DD0A0910403AC33F7
:10029C00C1F4E0E0E093040320D2A0910303AC335B
:1002AC0081F4A0E0B0E088EC93E43AD0E0E0E09395
:1002BC00030319D2A0910203A83119F4E0E0E093F2
:1002CC000203349904C0A0910203A7310CF001C0C1
:1002DC000AD2339904C0A0910203A1300CF405C0DA
:1002EC00E0910203E150E0930203329904C0A09123
:1002FC000303AB330CF001C0F0D1319904C0A091D1
:10030C000303A1300CF405C0E0910303E150E0932A
:10031C000303309903C0E0E0E093040382CFFFCFE6
:10032C0045D224971A930A93269AE0E4E4BDE9E0B7
:10033C00E5BDEE81FF8168857985A0E0B4E284EFAC
:10034C0098E430D3EA83FB836C837D836ED28F0178
:10035C00AA81BB818C819D81662777279FD22BD266
:10036C00D0D2DF01CB01E0E0F0E060E07FE35ED3D0
:10037C0010F00F5F1F4FE02FE150E7BD198108818E
:10038C002A960895E0E0E4BDE5BD29980895DAD1F8
:10039C009D014D811296ED91FC9111973097E9F0EA
:1003AC00D901A7D18F01309759F00230E0E01E0738
:1003BC0060F0F80131978F01D9011496ED93FC93FD
:1003CC00D90112969BD131974083D901ED91FC91C3
:1003DC001197FF230AF092D105C0D901EFEFFFEF7F
:1003EC00ED93FC93B6D126960895BA93AA932697CB
:1003FC00A8D100E0AC85BD85E0E0F0E0ED93FC9386
:10040C00EA89FB893196EA8BFB8B3197E4913E2F7D
:10041C00E03009F408C1E02FE03031F4353211F44A
:10042C0001E001C071D1FEC0E130A1F4353211F40C
:10043C006BD1F7C002E050E010E03D3211F411E056
:10044C00F1C03B3211F45BE2EDC0303211F450E2FA
:10045C00E9C002C0E23039F440E003E0303311F47B
:10046C001068E0C003C0E33009F0DCC0303310F09A
:10047C003A3308F007C0AAE04A9F402DE32FE0531F
:10048C004E0FD0C0E32FE33639F445D1E889F98912
:10049C00A481AA9346D1C5C0E33729F43CD147D1F6
:1004AC0000D10E2F07C0E03749F435D140D105D12A
:1004BC000E2F186012601F7720E037C0E43611F061
:1004CC00E93611F4146002C0E53731F4E8E6F0E0E7
:1004DC00EE83FF8305E00CC0E83511F4186003C00F
:1004EC00E83709F09EC0E2E7F0E0EE83FF8304E01A
:1004FC0012FF15C010D1A889B9891496ED91FD9100
:10050C00EA87FB87AB85AA2322F435D1EA87FB87E0
:10051C005DE2503011F00F5F01C01B7F06C0FBD0B5
:10052C00A889B989E6D0EA87FB8710FD10C00417AB
:10053C0070F417FF08C012FF04C01B7F352F015049
:10054C0001C030E301C030E2DFD04150F0CF202FAA
:10055C0011FF16C0203099F013FF06C0EE81FF8109
:10056C003591EE83FF8305C0AE81BF813D91AE8393
:10057C00BF83CAD0403009F041502150EBCF48C066
:10058C0030E3EE81FF8109D1E887F987EE81FF81A5
:10059C003296EE83FF83E885F985AA85BB85AE1775
:1005AC00BF0750F03F5FA885B985EA85FB85EA1B3C
:1005BC00FB0BEA87FB87EFCF3A3328F013FF02C01F
:1005CC00395F01C0395D14FD19C0313320F4A885A1
:1005DC00B985119709F409C0421710F010FF01C03A
:1005EC0011C030E217FF0AC030E3106112FF06C0E1
:1005FC001B7F5A9396D0403009F0415085D0403043
:10060C0009F041502150A885B985129708F0B8CF50
:10061C0010FF07C0403029F04150E0E2EA9381D04E
:10062C00F9CF00E0EDCEAC85BD85ED91FD9190D07C
:10063C0064960895FF92F82E269783D0FE0100242D
:10064C00EF0DF01D46855785042E052A19F4EFEFA2
:10065C00FFEF23C0DE0118960024AF0DB01D8D01F5
:10066C0048875987E0E0EA87EB87DE011C96002477
:10067C00AF0DB01DED91FD91FA93EA931A930A9385
:10068C00EDECF1E0FA93EA93DE011C96AEDE9F01ED
:10069C00A885B985E0E0EC93F9015AD02C96FF902F
:1006AC000895BA93AA93A991B991EE27FF276D915A
:1006BC00662311F03196FBCF0895BA93AA93AA271B
:1006CC00BB27E991F9910590002011F01196FBCF11
:1006DC00FD0108955CD065D00895E0910303EF5FB0
:1006EC00E09303030895E0910203EF5FE0930203AC
:1006FC0008951496ED91FC9111970895ED91FD914B
:10070C003196FE93EE9308953A93AD85BE85EF85B1
:10071C00F88909950895E889F9893497E88BF98B5C
:10072C000895AD85BE85EF85F88909950895A8894A
:10073C00B9891496ED91FD91EE83FF83AE81BF8153
:10074C0008955A934A933A932A931A930A930895C5
:10075C005D814C813B812A81198108810895AF9379
:10076C00BF93DB01AC0FBD1F05900D928A95E1F78D
:10077C00BF91AF910895F195E195F0400895F095F2
:10078C0060957095E195FF4F6F4F7F4F0895FE2F49
:10079C00FF0FFF0B6F2F7F2F08950590F491E02D25
:1007AC0008957A936A93FA93EA9308959A938A93A5
:1007BC00BA93AA930895182E862F612D192E972F70
:1007CC00712D1B2EBF2FF12D1A2EAE2FE12D08955A
:1007DC00552342F4503811F4E0FF04C03196691FE0
:1007EC00791F6BF050E8572711F45F93CAC05F3F35
:1007FC0031F0660F000C57956795752F08955F9330
:10080C0000200AF0C9C0C2C050E8192E1522880F6A
:10081C00991F9527550F879550E8072E0522660FCF
:10082C00771F7527550F67950895689401C0E89454
:10083C005F93F2DF703818F07F3F08F4A2C056E1E6
:10084C00571BAAF4519558300EF4593030F0EFEF95
:10085C00FFEF6FEF7FE777F91AC077275523B9F0D1
:10086C00EE0FFF1F661F771F5A95D1F710C0772721
:10087C00583028F0EF2FF62F672F5850F9CF55230B
:10088C0031F076956795F795E7955A95D1F7002055
:10089C000AF475DF5F910895689401C0E89430976D
:1008AC0060407040B1F0002426F0772312F40094DD
:1008BC0066DF172E7EE1112032F07A95EE0FFF1FC6
:1008CC00661F111CF9CFEF2FF62F612D5F938ADF76
:1008DC005F9108954F93AF01FD01DA01AB01BC01AB
:1008EC00CA01402D012C142E4F910895EA0FFB1FC5
:1008FC00681F0895E095F0956095EF5FFF4F6F4F7F
:10090C0008955F9381DF903849F150E815267038CF
:10091C0021F1572F591B2BF112F4DCDFFACF583190
:10092C0018F0AA27BB278827583028F0AB2FB82FF0
:10093C0088275850F9CF552329F08695B795A79558
:10094C005A95D9F7502D512572F0D0DF38F46795B0
:10095C00F795E795739513F41FC0BCDF43DF5F91E8
:10096C000895D8F7FBCFEA1BFB0B680B51F010F482
:10097C000094C0DF662392F3EE0FFF1F661F7A957B
:10098C00CBF7EE27FF27BF015F910895EFEFFFEF45
:10099C006FE77FEF5F910895EFEFFFEF6FE77FE772
:1009AC005F9108955F9330DF703821F411200AF4C1
:1009BC00EDCFF2CF903809F4E4CF01240894970BD3
:1009CC001BF4D4F30020F3CF792F1F932F933F9375
:1009DC004F931124112722273327A90190E2AE1738
:1009EC00BF078607410730F0AE1BBF0B860B410BD0
:1009FC00089401C08894551F221F331F111CAA1F75
:100A0C00BB1F881F441F9A9551F7F901612D4F9117
:100A1C003F912F911F91662332F0550FEE1FFF1F50
:100A2C00661F7A954BF2D4DE5F91089599239AF064
:100A3C00772342F0971748F029F4AE17BF078607C3
:100A4C0020F031F09894889408959894089408951F
:100A5C001894889408957723C2F7971798F3A9F7F9
:100A6C00EA17FB07680788F399F3ECCF109639F077
:100A7C00A8958AEF90E00197F1F71197C9F70895BF
:00000001FF
