:040000000C94430019
:100004000C9400000C9400000C9400000C9400006C
:100014000C9400000C9400000C9400000C9400005C
:100024000C9400000C9400000C9400000C9400004C
:100034000C9400000C9400000C9400000C9400003C
:100044000C9400000C9400000C9400000C9400002C
:100054000C9400000C9400000C9400000C9400001C
:100064000C9400001027E80364000A00010000104B
:1000740000011000010025692E2569202563200A4E
:100084000D00F894EE27EFBBF1E0F5BFE5BF8DE07E
:10009400A2E0BB27ED938A95E9F780E098E0A0E021
:1000A400B1E0ED930197E9F7E0E0EEBBEFEFEDBFD0
:1000B400E8E0EEBFC0E0D3E00C947C000A930A2F82
:1000C400E02FE064E0937C0083E08A95F1F7E0910F
:1000D4007A00E064E0937A00E0917A00E071E1F361
:1000E400E0917A00E061E0937A00E0917800F09189
:1000F400790077C0E3E8E0937A00E0E0E0937B00E6
:10010400E0E2E0937E00E2E0E093C000E8E1E09307
:10011400C100E6E0E093C200E0E0E093C500ECE05B
:10012400E093C400A5E0CADFE0930403F093050361
:1001340066277727A8D2A0E0B0E088EC92E42CD31D
:10014400DF01CB01E0E0F0E060E874E473D3C1D1F7
:10015400C9D1A6E0B3E05ED2EC93E0910603F0E0EF
:10016400CAD16F2F660F660B762F8DD219D2BED2ED
:10017400CBD112D3AED1B6D1A0E0B0E080E09FE302
:10018400BCD2C2D19BD330F4ADD1A7E0B3E042D20C
:10019400EC9308C0E0E0E0930703E0910603EF5F0F
:1001A400E0930603EAE7F0E0FA93EA93E0910603AA
:1001B400B2D1E0910703AFD1E5E2F0E060E070E096
:1001C400EAD18CE046D12E96A8EEB3E097D3AACF1D
:1001D400FFCF0A930A2FE091C000E072E1F300938D
:1001E400C60009910895BCD18D012B81A22FF1DFA6
:1001F400D801ED91FD913196FE93EE93B8D12496FA
:100204000895BA93AA932697A8D100E0AC85BD853A
:10021400E0E0F0E0ED93FC93EA89FB893196EA8B08
:10022400FB8B3197E4913E2FE03009F40BC1E02FB2
:10023400E03031F4353211F401E001C071D101C173
:10024400E130A1F4353211F46BD1FAC002E050E090
:1002540010E03D3211F411E0F4C03B3211F45BE2E2
:10026400F0C0303211F450E2ECC002C0E23039F494
:1002740040E003E0303311F41068E3C003C0E3301E
:1002840009F0DFC0303310F03A3308F007C0AAE0B9
:100294004A9F402DE32FE0534E0FD3C0E32FE336A4
:1002A40039F445D1E889F989A481AA9346D1C8C013
:1002B400E33729F43CD147D1F3D00E2F07C0E03700
:1002C40049F435D140D1F8D00E2F186012601F7751
:1002D40020E03AC0E43611F0E93611F4146002C0AB
:1002E400E53731F4E8E6F0E0EE83FF8305E00CC087
:1002F400E83511F4186003C0E83709F0A1C0E2E75B
:10030400F0E0EE83FF8304E012FF15C010D1A8894A
:10031400B9891496ED91FD91EA87FB87AB85AA23F1
:1003240022F429D1EA87FB875DE2503011F00F5F98
:1003340001C01B7F09C0FBD0A889B9891496ED912F
:10034400FC911197EA87FB8710FD10C0041770F425
:1003540017FF08C012FF04C01B7F352F015001C0D6
:1003640030E301C030E2DCD04150F0CF202F11FF48
:1003740016C0203099F013FF06C0EE81FF8135913D
:10038400EE83FF8305C0AE81BF813D91AE83BF8301
:10039400C7D0403009F041502150EBCF48C030E382
:1003A400EE81FF81F4D0E887F987EE81FF813296F0
:1003B400EE83FF83E885F985AA85BB85AE17BF0761
:1003C40050F03F5FA885B985EA85FB85EA1BFB0BE6
:1003D400EA87FB87EFCF3A3328F013FF02C0395F77
:1003E40001C0395D14FD19C0313320F4A885B985E5
:1003F400119709F409C0421710F010FF01C011C091
:1004040030E217FF0AC030E3106112FF06C01B7F01
:100414005A9393D0403009F0415082D0403009F0D3
:1004240041502150A885B985129708F0B8CF10FF24
:1004340007C0403029F04150E0E2EA937ED0F9CF82
:1004440000E0EACEAC85BD85ED91FD918DD064963A
:100454000895FF92F82E26971A930A93DE011496B4
:100464000024AF0DB01D8D01E0E0EC83ED83EE833D
:10047400EF83DE0118960024AF0DB01DED91FD91C0
:10048400FA93EA931A930A93E5EFF0E0FA93EA9366
:10049400DE011896B6DE198108812896FF9008952A
:1004A400BA93AA93A991B991EE27FF276D91662378
:1004B40011F03196FBCF0895BA93AA93AA27BB27CC
:1004C400E991F9910590002011F01196FBCFFD01FF
:1004D4000895E0930003F093010360930203709383
:1004E40003030895E0910003F09101036091020376
:1004F400709103030895A0910003B09101038091CA
:100504000203909103030895E4DFF5DFE0E0F0E0F7
:1005140060E271E40895FF27662777273CD00895A9
:100524003A93AD85BE85EF85F88909950895E889E4
:10053400F9893497E88BF98B0895AD85BE85EF85ED
:10054400F88909950895A889B9891496ED91FD91C2
:10055400EE83FF83AE81BF8108955A934A933A9301
:100564002A931A930A9308955D814C813B812A81D1
:10057400198108810895F195E195F0400895F09569
:1005840060957095E195FF4F6F4F7F4F08950590EB
:10059400F491E02D08957A936A93FA93EA93089577
:1005A400182E862F612D192E972F712D1B2EBF2FDC
:1005B400F12D1A2EAE2FE12D0895552342F4503813
:1005C40011F4E0FF04C03196691F791F6BF050E805
:1005D400572711F45F93CFC05F3F31F0660F000CD3
:1005E40057956795752F08955F9300200AF0CEC044
:1005F400C7C050E8192E1522880F991F9527550F4B
:10060400879550E8072E0522660F771F7527550F2B
:1006140067950895689401C0E8945F93F2DF703899
:1006240018F07F3F08F4A7C056E1571BAAF4519570
:1006340058300EF4593030F0EFEFFFEF6FEF7FE7F3
:1006440077F91AC077275523B9F0EE0FFF1F661FFD
:10065400771F5A95D1F710C07727583028F0EF2F1D
:10066400F62F672F5850F9CF552331F076956795BB
:10067400F795E7955A95D1F700200AF480DF5F914A
:100684000895689401C0E894309760407040B1F0D8
:10069400002426F0772312F4009471DF172E7EE1F4
:1006A400112032F07A95EE0FFF1F661F111CF9CF4F
:1006B400EF2FF62F612D5F938ADF5F9108954F939B
:1006C400AF01FD01DA01AB01BC01CA01402D012CCF
:1006D400142E4F910895EA0FFB1F681F0895E095AB
:1006E400F0956095EF5FFF4F6F4F08955F9381DF43
:1006F400903871F150E8152604C05F937ADF903882
:1007040039F1703821F1572F591B2BF112F4D7DF2F
:10071400FACF583118F0AA27BB278827583028F079
:10072400AB2FB82F88275850F9CF552329F0869539
:10073400B795A7955A95D9F7502D512572F0CBDF6F
:1007440038F46795F795E795739513F41FC0B7DFF1
:100754003EDF5F910895D8F7FBCFEA1BFB0B680BD4
:1007640051F010F40094BBDF662392F3EE0FFF1FE9
:10077400661F7A95CBF7EE27FF27BF015F91089597
:10078400EFEFFFEF6FE77FEF5F910895EFEFFFEF7C
:100794006FE77FE75F9108955F932BDF703859F31C
:1007A400903849F301240894791F23F424F300209A
:1007B4003AF3ECCF0F921F932F933F934F9311274C
:1007C40022279927689FA0018F9F302D410D591F23
:1007D4006B9F300D411D591F8E9F27D0BF9F25D081
:1007E4006A9F23D0BE9F1DD0AF9F1BD0AE9F110D1B
:1007F400291F391F491F591FE32FF42F652F522F2B
:100804004F913F912F911F910F9066232AF0550F1E
:10081400EE1FFF1F661F02C073954BF2CEDE5F9181
:100824000895100D211D391F02C0200D311D491FCF
:10083400591F08955F93DDDE703821F411200AF406
:100844009FCFA4CF903809F496CF01240894970B36
:100854001BF4D4F30020F3CF792F1F932F933F93EE
:100864004F931124112722273327A90190E2AE17B1
:10087400BF078607410730F0AE1BBF0B860B410B49
:10088400089401C08894551F221F331F111CAA1FEE
:10089400BB1F881F441F9A9551F7F901612D4F9191
:1008A4003F912F911F91662332F0550FEE1FFF1FCA
:1008B400661F7A954BF281DE5F91089599239AF031
:1008C400772342F0971748F029F4AE17BF0786073D
:1008D40020F031F098948894089598940894089599
:1008E4001894889408957723C2F7971798F3A9F773
:1008F400EA17FB07680788F399F3ECCF109639F0F1
:10090400A8958AEF90E00197F1F71197C9F7089538
:00000001FF
