:0E0000000C946B000C9400000C9400000C9407
:10000E0000000C9400000C9400000C9400000C9462
:10001E0000000C9400000C9400000C9400000C9452
:10002E0000000C9400000C9400000C9400000C9442
:10003E0000000C9400000C9400000C9400000C9432
:10004E0000000C9400000C9400000C9400000C9422
:10005E0000000C9400000C9400001027E8036400CC
:10006E000A0001000010000110000100030303024A
:10007E00020C0008000100060E1D1F1E1F1F0E00A1
:10008E000E1D1E181C1F0E000E171F0F1F1F0E0019
:10009E000E170F03071F0E00482045204C204C2042
:1000AE004F004D722E205061634D616E00000700AF
:1000BE0001038600070009038E0007001103960056
:1000CE00070019039E000000F894EE27EFBBF1E045
:1000DE00F5BFE5BF8DE0A2E0BB27ED938A95E9F76A
:1000EE0080E098E0A0E0B1E0ED930197E9F7ECEB4A
:1000FE00F0E085919591009761F0A591B5910590ED
:10010E001590BF01F00105900D920197E1F7FB01EB
:10011E00F0CFE0E0EEBBEFEFEDBFE8E0EEBFC0E00A
:10012E00D3E00C946E012C978CE060E070E0EAE76F
:10013E00F0E0A0D10A93539A529A549A559A569A2D
:10014E00579AA2E3B0E0A2D100E00C3070F4A2E026
:10015E00B0E09CD1E02FF0E0DE011196AE0FBF1F94
:10016E00AC910FD00BD00F5FF0CFECE0E09300031B
:10017E00A09100031DD008812D9608955B9A5B987F
:10018E0008950A930A2F03FF02C05F9A01C05F9879
:10019E0002FF02C05E9A01C05E9801FF02C05D9A26
:1001AE0001C05D9800FF02C05C9A01C05C988DC0D2
:1001BE001A930A931A2F5A9804C01A930A931A2F55
:1001CE005A9AA2E0B0E062D1E12FE07F0E2F0295A5
:1001DE000F70A02FD6DFD2DFE12FEF700E2FA02FE2
:1001EE00D0DFA2E0B0E052D1C9DF09911991089594
:1001FE0038D11A2F2B2F00E0E02F0F5FF0E0E10F28
:10020E00F21FA491DADFE02FF0E0E10FF21FE4918C
:10021E00E03091F72BD122C01A930A930A2F1A813C
:10022E00E02FF0E0309719F4A12FA05814C0E13060
:10023E00A0E0FA0719F4A12FA0540DC0E230A0E0FF
:10024E00FA0719F4A12FAC5606C0E330A0E0FA0766
:10025E0019F4A12FAC52ACDF1981088123960895B1
:10026E00FFD01A2F2B2F3C81E32FEE0FEE0FEE0F48
:10027E00E05CAE2F9DDF00E0083048F4A12FB22FD6
:10028E00EE27A00FBE1FAC9198DF0F5FF5CFA0E851
:10029E008FDFEBD0259608950A930A2FE02FE066A4
:1002AE00E0937C0083E08A95F1F7E0917A00E064B8
:1002BE00E0937A00E0917A00E071E1F3E0917A0048
:1002CE00E061E0937A00E091790009910895E1E808
:1002DE00E0937A00E0E0E0937B00E1E0E0937E00C3
:1002EE0022DFE0E0EA93A1E0B3E0BADFE1E0EA93D7
:1002FE00A9E0B3E0B5DFE2E0EA93A1E1B3E0B0DF5D
:10030E00E3E0EA93A9E1B3E0ABDF419AE3E0EA93DD
:10031E00A0E082DFA6EAB0E06BDFE3E0EA93A1E0C3
:10032E007BDFA0EBB0E064DFA0912103A03121F4CC
:10033E00A0912203A03009F007C0E1E0E093220370
:10034E00EFE0E09321032CC0A0912103A03024F410
:10035E00A0912203A13009F006C0E0E0E093220351
:10036E00E09321031DC0A0912103A03024F4A0919D
:10037E002203A03009F005C0E0E0E0932103E1E0A4
:10038E000DC0A0912103A03121F4A0912203A13030
:10039E0009F006C0EFE0E0932103E0E0E0932203D2
:1003AE00319904C0A0912203A03009F001C01FC0F2
:1003BE00319904C0A0912203A13009F005C03CD0B0
:1003CE0041D044D047D026C0319B04C0A091220317
:1003DE00A03009F005C030D035D038D03BD01AC08F
:1003EE00319B04C0A0912203A13009F015C0E09109
:1003FE002103EA93A09122030FDFA1E0DEDE16D0E7
:10040E001BD0A0E0DADE12D017D0A0E2D6DEE0914B
:10041E002103EF5FE0932103A0912103A03114F497
:10042E00A0300CF401C080CF71CFFFCFA0E034DF3D
:10043E00F0E0DF012BD00895E0912103EA93A09123
:10044E002203EACEA3E0B9DEF1DFF6CFA2E0B5DEFD
:10045E00EDDFF2CFA0E2B1DEE0912103E15008958D
:10046E003A932A931A930A9308953B812A8119810C
:10047E0008810895AF93BF93DB01AC0FBD1F0590AC
:10048E000D928A95E1F7BF91AF910895109639F0CC
:10049E00A8958AEF90E00197F1F71197C9F70895A3
:00000001FF
