:040000000C94A501B6
:100004000C9400000C9400000C9400000C9400006C
:100014000C9400000C9400000C9400000C9400005C
:100024000C9400000C9400000C9400000C9400004C
:100034000C9400000C9400000C9400000C9400003C
:100044000C9400000C9400000C9400000C9400002C
:100054000C9400000C9400000C9400000C9400001C
:100064000C9400000B020400BA020400BA02080057
:1000740010030800BA020800930208004B020400AF
:100084004B0204004B020400100304001003080098
:100094007003080010030800BA0208009302040069
:1000A4000B0204000B020400700304007003080038
:1000B400A40308007003080010030800BA02040037
:1000C4004B0204000B0208000B0208004B02040060
:1000D4001003040093020400BA0202000B0204009D
:1000E400BA020400BA02080010030800BA020800A9
:1000F400930208004B0204004B0204004B0204006C
:100104001003040010030800700308001003080023
:10011400BA020800930204000B0204000B0204005C
:100124007003040070030800A403080070030800AF
:1001340010030800BA0204004B0204000B0208007A
:100144000B0208004B020400100304009302040095
:10015400BA0202000B020400BA020400BA0204004C
:10016400BA0204009302020093020400BA020400DB
:10017400930204004B0204000B020200700304000B
:10018400A403040070030400100304001704040013
:100194000B0204000B0208000B0208004B020400CF
:1001A4001003040093020400BA0202000B020400CC
:1001B400BA020400BA02080010030800BA020800D8
:1001C400930208004B0204004B0204004B0204009B
:1001D4001003040010030800700308001003080053
:1001E400BA020800930204000B0204000B0204008C
:1001F4007003040070030800A403080070030800DF
:1002040010030800BA0204004B0204000B020800A9
:100214000B0208004B0204001003040093020400C4
:10022400BA0202000B020400BA020400BA0204007B
:10023400BA0204009302020093020400BA0204000A
:10024400930204004B0204000B020200700304003A
:10025400A403040070030400100304001704040042
:100264000B0204000B0208000B0208004B020400FE
:100274001003040093020400BA0202000B020400FB
:10028400BA020400BA02080010030800BA02080007
:10029400930208004B0204004B0204004B020400CA
:1002A4001003040010030800700308001003080082
:1002B400BA020800930204000B0204000B020400BB
:1002C40006010400060108002601FCFF0601FCFFEC
:1002D4005D01FCFF4A01FEFF06010400060108005F
:1002E4002601FCFF0601FCFF8801FCFF5D01FEFF07
:1002F40006010400060108000B02FCFFB801FCFF24
:100304005D01FCFF4A01FCFF2601FCFFD201040051
:10031400D2010800B801FCFF5D01FCFF8801FCFF6D
:100324005D01FEFF9700B2061900B2060100020348
:100334002803020004032A0301000A032C03020019
:100344000C032E030000F894EE27EFBBF1E0F5BF99
:10035400E5BF8DE0A2E0BB27ED938A95E9F780E045
:1003640098E0A0E0B1E0ED930197E9F7E0E3F3E072
:1003740085919591009761F0A591B591059015909F
:10038400BF01F00105900D920197E1F7FB01F0CF59
:10039400E0E0EEBBEFEFEDBFE8E0EEBFC0E0D3E09E
:1003A4000C940B028CD124971A930A93219AE0E4BB
:1003B400E0938000E9E0E0938100EE81FF816885AD
:1003C4007985A0E0B4E284EF98E4B4D2EA83FB83B5
:1003D4006C837D83B2D0A5D18F01AFD0A0E0B0E013
:1003E40080E09FE30AD29DD18F013197EF2FF0E097
:1003F400E0938900E02FE150E0938800198108819F
:100404002A960895E0E0E0938100E0938000299823
:100414000895E3E0E8B9309B95D0319B99D03099A9
:1004240003C09DD0109709F041C02297E0E0E88313
:10043400E983E883E983E0910203F091030394D014
:10044400A4F5E881F981EE0FFF1FE659FF4F33D180
:1004540092D0A0910603B091070300240A160B065C
:100464001CF48ED092D012C0A0910703AA2372F478
:1004740087D0AFEFBFEFF1D07ED082D086D08FD0BF
:1004840098D0A8E0B3E04FD1ED93FC93E881F981D3
:10049400A8E6B0E094D083D09FD081D0A6D0319983
:1004A40002C056D002C0A9D0C6CF2296319903C04B
:1004B40056D0119709F03FC02297E0E0E883E98322
:1004C400E0910A03F0910B034FD0A4F5E881F98180
:1004D400EE0FFF1FEA53FD4FEED095D0A0910E030F
:1004E400B0910F0300240A160B061CF491D095D08A
:1004F40012C0A0910F03AA2372F48AD0AFEFBFEF0A
:10050400ACD081D085D089D092D053D0A0E1B3E0D3
:100514000AD1ED93FC93E881F981A4ECB2E04FD0C9
:1005240086D05AD084D061D0309902C00BD002C09A
:1005340064D0C6CF22966FCFFFCFEA81FB816C8156
:100544007D810895E0E0E0930003E09301030895C2
:10055400E1E0F0E0E0930003F09301030895A0913B
:100564000003B09101030895EE0FFF1FA881B98124
:10057400AE17BF070895E0930603F09307030895A9
:10058400E0910603F09107030895A0910403B0914C
:1005940005037ED0E0930803F09309030895E091E6
:1005A4000803F09109036F2F660F660B762FF2D0C4
:1005B4000895A0E0B0E080EC9FE36ED10895EE0FC3
:1005C400FF1FEA0FFB1F77D06F2F660F660B762F86
:1005D400E1D0DF01CB01E6CEA6E6B6E686E69FE3F0
:1005E4005BD19FD0DF01EAD10DCFADECBCEC8CEC3C
:1005F4009DE352D196D0DF01E1C1E881F9813296C1
:10060400E883F9830895E0930E03F0930F030895AC
:10061400E0910E03F0910F030895A0910C03B091A3
:100624000D0336D0E0931003F09311030895E09185
:100634001003F09111036F2F660F660B762FAAD06B
:100644000895F195E195F0400895F09560957095C1
:10065400E195FF4F6F4F7F4F0895FA9FF02DEB9F69
:10066400F00DEA9FE02DF10D08950024112490E18E
:10067400AA0FBB1F001C111C0E1A1F0A18F40E0E21
:100684001F1E01C0A1609A9599F7FD01D00108953C
:1006940004D0EBDF0EF4D5DF0895E894F7FF02C031
:1006A400D0DF6894B7FF06C0B195A195B04000F8BB
:1006B400039400FA08950590F491E02D08959A9317
:1006C4008A93BA93AA930895552342F4503811F4A7
:1006D400E0FF04C03196691F791F6BF050E857277B
:1006E40011F45F93C8C05F3F31F0660F000C57955B
:1006F4006795752F08955F9300200AF0C7C0C0C0A6
:1007040050E8192E1522880F991F9527550F8795A4
:1007140050E8072E0522660F771F7527550F67953A
:100724000895689401C0E8945F93F2DF703818F07C
:100734007F3F08F4A0C056E1571BAAF451955830E6
:100744000EF4593030F0EFEFFFEF6FEF7FE777F9FA
:100754001AC077275523B9F0EE0FFF1F661F771FC6
:100764005A95D1F710C07727583028F0EF2FF62F7D
:10077400672F5850F9CF552331F076956795F79543
:10078400E7955A95D1F700200AF45FDF5F91089549
:10079400689401C0E894309760407040B1F0002440
:1007A40026F0772312F4009450DF172E7EE11120F7
:1007B40032F07A95EE0FFF1F661F111CF9CFEF2F51
:1007C400F62F612D5F938ADF5F9108954F93AF01F8
:1007D400FD01DA01AB01BC01CA01402D012C142E2C
:1007E4004F910895EA0FFB1F681F0895E095F09557
:1007F4006095EF5FFF4F6F4F08955F9381DF9038EF
:1008040039F1703821F1572F591B2BF112F4DEDF27
:10081400FACF583118F0AA27BB278827583028F078
:10082400AB2FB82F88275850F9CF552329F0869538
:10083400B795A7955A95D9F7502D512572F0D2DF67
:1008440038F46795F795E795739513F41FC0BEDFE9
:1008540045DF5F910895D8F7FBCFEA1BFB0B680BCC
:1008640051F010F40094C2DF662392F3EE0FFF1FE1
:10087400661F7A95CBF7EE27FF27BF015F91089596
:10088400EFEFFFEF6FE77FEF5F910895EFEFFFEF7B
:100894006FE77FE75F9108955F9332DF703859F314
:1008A400903849F301240894791F23F424F3002099
:1008B4003AF3ECCF0F921F932F933F934F9311274B
:1008C40022279927689FA0018F9F302D410D591F22
:1008D4006B9F300D411D591F8E9F27D0BF9F25D080
:1008E4006A9F23D0BE9F1DD0AF9F1BD0AE9F110D1A
:1008F400291F391F491F591FE32FF42F652F522F2A
:100904004F913F912F911F910F9066232AF0550F1D
:10091400EE1FFF1F661F02C073954BF2D5DE5F9179
:100924000895100D211D391F02C0200D311D491FCE
:10093400591F08955F93E4DE703821F411200AF4FE
:100944009FCFA4CF903809F496CF01240894970B35
:100954001BF4D4F30020F3CF792F1F932F933F93ED
:100964004F931124112722273327A90190E2AE17B0
:10097400BF078607410730F0AE1BBF0B860B410B48
:10098400089401C08894551F221F331F111CAA1FED
:10099400BB1F881F441F9A9551F7F901612D4F9190
:1009A4003F912F911F91662332F0550FEE1FFF1FC9
:1009B400661F7A954BF288DE5F910895109639F0A0
:1009C400A8958AEF90E00197F1F71197C9F7089578
:00000001FF
